:020000021000EC
:10F0000000000120B9950200E1950200E39502009D
:10F01000E5950200E7950200E99502000000000076
:10F02000000000000000000000000000EB9502005E
:10F03000ED95020000000000EF950200F19502003E
:10F0400069200200F3950200A12D0200F395020051
:10F05000F3950200F3950200C525020039A20200D3
:10F06000F3950200F3950200F3950200F395020078
:10F07000F3950200F3950200F3950200F395020068
:10F08000F3950200B5FB0100F3950200F395020031
:10F0900079FC0100F395020069A10200F3950200DA
:10F0A000F3950200F3950200A1A90200F395020076
:10F0B000F3950200F395020000000000000000003C
:10F0C000F3950200F3950200F3950200F395020018
:10F0D000F3950200F3950200F39502000000000092
:10F0E0000000000000000000000000000000000020
:10F0F0000000000000000000000000000000000010
:10F1000000000000000000000000000000000000FF
:10F1100000000000000000000000000000000000EF
:10F4000010B5054C237833B9044B13B10448AFF35E
:10F4100000800123237010BDD42C002000000000C8
:10F420009CB00200084B10B51BB108490848AFF367
:10F4300000800848036803B910BD074B002BFBD0C0
:10F44000BDE81040184700BF00000000D82C002085
:10F450009CB00200C02C002000000000154B002BC7
:10F4600008BF134B9D46A3F5803A00218B460F46FB
:10F470001348144A121A00F065F80F4B002B00D005
:10F4800098470E4B002B00D0984700200021040025
:10F490000D000D48002802D00C48AFF3008000F0AA
:10F4A0002BF82000290004F077FB00F011F800BFD2
:10F4B0000000080000000120000000000000000023
:10F4C000D42C0020A43C002000000000000000001C
:10F4D00008B5074B044613B10021AFF30080054B7C
:10F4E0001868836A03B19847204600F033F800BFDC
:10F4F00000000000E0AC020070B50E4B0E4CE41AA8
:10F50000A41000251E46A54204D056F82530984781
:10F510000135F8E70BF0D6FB084C094BE41AA410B0
:10F5200000251E46A54204D056F8253098470135DF
:10F53000F8E770BDB82C0020B82C0020BC2C0020AF
:10F54000B82C002002440346934202D003F8011B6A
:10F55000FAE77047FEE700BF0378012B04BF014ABA
:10F5600013707047F02C0020F0B51B4F3B7889B02A
:10F570001BB11A4B1B7883422BD0194D064604F061
:10F58000A7FD0FCD6C460FC495E80F004FF0000E9D
:10F5900084E80F000625052107224FF0EB73114880
:10F5A0000391082402928DF814E0009501940693CB
:10F5B00003F070FB002E0C4A0A4818BF002269466F
:10F5C00003F07AFA18B9054A012316703B7009B0A6
:10F5D000F0BD002009B0F0BDF22C0020F12C00207D
:10F5E000E4AC0200982C002059F501000120FFF73F
:10F5F000BBBF00BF2DE9F04383B002AB4FF0000862
:10F6000003F8018D254C064618460D46A76800F004
:10F61000E5FFA2686368D4F8009013440133C9EB96
:10F620000303012B07D80BBB9DF8070000F0FEFF7A
:10F6300003B0BDE8F08309F101039DF807002360E2
:10F6400000F0F4FF0122002362F3010368F3820358
:10F6500007EA090766F3C50304EB870468F3891317
:10F6600065F39F23E36003B0BDE8F08301214346C7
:10F6700061F3010368F38203052161F3C50309EA1D
:10F680000202074904EB820268F3891309F10107BA
:10F6900061F39F232760D360C6E700BFF42C0020EE
:10F6A00004AD02002DE9F04782B002AB002603F85A
:10F6B000016D294C8146184617468846A56800F01A
:10F6C0008DFFA2686368D4F800A013440133CAEB2D
:10F6D0000303022B07D843BB9DF8070000F0A6FFE9
:10F6E00002B0BDE8F0870AF102039DF8070023602D
:10F6F00000F09CFF0122002362F301030AEB0201E8
:10F7000066F3820369F3C50305EA0A0A0D4004EBB8
:10F710008A0A62F3891304EB850468F39F23CAF80D
:10F720000C30E76002B0BDE8F0870121334661F399
:10F73000010366F38203052161F3C5030AEA0202AD
:10F74000064804EB820266F389130AF1010160F3B3
:10F750009F232160D360BFE7F42C002004AD02009A
:10F760002DE9F04F83B002AD002605F8016D2D4C58
:10F770008246284690461F468946A56800F02EFF1F
:10F78000A2686368D4F800B013440133CBEB0303E1
:10F79000032B07D87BBB9DF8070000F047FF03B0A1
:10F7A000BDE8F08F0BF103039DF80700236000F024
:10F7B0003DFF0122002362F301030BF1020066F317
:10F7C00082035A446AF3C503022105EA0B0B2A405F
:10F7D000054004EB8B0B04EB820261F3891304EB0D
:10F7E000850469F39F23CBF80C30C2F80C80E760E6
:10F7F00003B0BDE8F08F0121334661F3010366F3E6
:10F800008203052161F3C5030BEA0202064804EBFB
:10F81000820266F389130BF1010160F39F232160DB
:10F82000D360B8E7F42C002004AD02002DE9F047C6
:10F830004C4E96E80C009A428AB070D0B06804E052
:10F84000C4F3891202EB9452134400EA0305023513
:10F8500006EB85020133546814F00302F0D0022A4B
:10F8600028D0C4F38312C4F3952C002A75D00DF16F
:10F87000100E7546D71800EA030106EB810101332B
:10F88000C96845F8041BBB42F5D10092C4F3C2001D
:10F8900073466246D6F81044324D0021A04738B175
:10F8A00077603068C01B18BF01200AB0BDE8F08740
:10F8B0006F68F6E703F1010A20EA0A01034001310B
:10F8C00006EB830389004FEA94588845DA68DFF82D
:10F8D00094E0C4F3891326D9A9B300EA0A0C5FFAAD
:10F8E00081F90EEB8C0CC9EB08010CF10C0C0EF13C
:10F8F0000C00C9B203910290CDF80490CDF800C07D
:10F900000021C4F3C200D6F81474B847404520D093
:10F9100006EB850560F38F146C607768C1E7002003
:10F920000AB0BDE8F08700EA0A000EEB80000C3058
:10F930008DE801010021DEF8149403910291C4F3D3
:10F94000C200C847E2E70EF10C0C08465FFA88F9DE
:10F95000D0E703300AEB9007A2E71F460DF1100E27
:10F9600093E700BFF42C00202DE9F84F244B1A78C0
:10F970008AB3DFF890B0DFF89090DFF890A0002411
:10F98000012703E00134E4B2944224D226B2D9F82C
:10F990000050DBF8003015F8360007FA00FE1EEACA
:10F9A000030F05EBC608EDD0164A23EA0E031360D9
:10F9B00002F0FEFD15F83650DAF8003007FA05F6C9
:10F9C000334000FA05F6B34207D00D4B01341A78E4
:10F9D000E4B29442DAD3BDE8F88FD8F80430002BB3
:10F9E000F3D098F80110A1F10101B1FA81F14909B0
:10F9F000091AB1FA81F1490928469847E5E700BF9D
:10FA0000143100203C31002010310020383100201A
:10FA100070B50646114800F0A3FD40B9104D012411
:10FA20002B68B4401C4203D023EA04042C6070BD50
:10FA3000304602F0BDFD0B4A136860B123432E68C7
:10FA40000949136034432C60044809680022BDE86A
:10FA5000704000F02DBD23EA0403F0E718310020C8
:10FA60003C310020383100200C310020042A01D81C
:10FA7000072070472DE9F04182B0884605461746B9
:10FA800002F0DAFB002834D01C4C1D481D491E4AE8
:10FA90001E4B2560002608F1FF340F6080F80080BF
:10FAA00016601E60E4B20327B8F1000F03D11AE01C
:10FAB000DBB2C4B11C4623B205EBC30215F8330018
:10FAC0009378134A8DF8053001A98DF804708DF8EC
:10FAD00006608DF8076002F041FC631E0028E7D045
:10FAE00002B0BDE8F0810B4A0B48002100F0CEFCCB
:10FAF000F6E702F05FFB0028C6D0F1E710310020E6
:10FB0000143100200C310020383100203C3100201D
:10FB100011FA010069F9010010AD020070B5084D3D
:10FB20002B785BB1074E00243368012113F83400B1
:10FB300002F0DCFC2B780134A342F5D8002070BD24
:10FB4000143100201031002000B585B0002303904F
:10FB5000194601AA44F20100ADF80430029300F006
:10FB600003F805B05DF804FB08B50E490120FFF766
:10FB700041FDFFF73BFDFFF759FE0028FBD10A4B83
:10FB80001B68DB0700D5FFDEBFF34F8F0749084B2B
:10FB9000CA6802F4E0621343CB60BFF34F8F00BF2B
:10FBA000FDE700BF14AD0200F0ED00E000ED00E065
:10FBB0000400FA052DE9F843274A284B0025C2F82E
:10FBC0004051C2F84451C2F84851C2F84C51C2F8F1
:10FBD0000051C2F804511B681BB32149D2F8042517
:10FBE0000C68204F141B1A6824F07F44A242A846D8
:10FBF00009D8197CDE69A41A1544A1B91EB133468F
:10FC00001A68A242F5D9184B18491A780B789A420B
:10FC10001BD01749174A41F823504FF48013C2F8FC
:10FC20000031BDE8F883D3F8149083F810803A6867
:10FC30009B69484619462AB190470028DED0FFF755
:10FC400083FFDBE71846C847D8E7531CDBB2022B1B
:10FC500008BF00230B70DCE7001001404431002096
:10FC600040310020483100204C3100204D3100202F
:10FC70005831002000E100E02DE9F04FA44AA549E9
:10FC800013780978A44889B000680090994200F080
:10FC9000EB800133DBB2022B08BF002313709F4AB5
:10FCA00052F82360009B9C4A334423F07F43136047
:10FCB0004FF0010E9A4B079693F800A0994BCDF8A0
:10FCC00018A0D3F80090964B5B7801931D46944B97
:10FCD000D3F804B09B7802931C46934B1B78049393
:10FCE0008D4B00271B68039351464A464B460597A8
:10FCF000BC4638462646B846A9421AD001EB410414
:10FD000001311BF83470C9B2B14208BF0021022F83
:10FD10000BEBC40400F08380032FEDD1002BEBD05C
:10FD2000DA6918741346002AFAD1A9424FF0010C7F
:10FD3000E4D1DDF818A0079E4746BCF1000F40F063
:10FD4000A380059A12B1744A03991160002F40F004
:10FD50009C82BEF1000F40F0C681B9EB030218BFD0
:10FD600001220792059375461E466B4ACDF810B0E6
:10FD7000D2F800C06B4ADFF8B891D646D2F800A09E
:10FD8000694A0023127800931F4606924FF001083B
:10FD90009B463DB36A68A9682C46ED69CCEB02032B
:10FDA00023F07F434B4572D80B4423606760A76004
:10FDB00084F81080E761002E00F08B803168994252
:10FDC0007ED2304603E01168994269D21046C2697A
:10FDD0005B1A002AF7D12360E2613346C4611E46F4
:10FDE000002DD7D1019B9E4500F0A4800EEB4E0361
:10FDF000049911F83320039210460EF1010E029A75
:10FE00005FFA8EFE724508BF4FF0000E012801EB2D
:10FE1000C30364D03346012200921E46E0E76468C3
:10FE2000002B3FF469AF9C429A4601D115E0BA46D7
:10FE3000DAF81C70002F3FF45FAFBC42F7D1BA452F
:10FE40000CD0FC693F68CAF81C40002C3FF454AF4A
:10FE500023683B44236013464EE71F46DA6932B1FC
:10FE600013464FF0010CECE70026B64622E72F4B75
:10FE70004FF00108C3F80880C44613460392CDF83A
:10FE80001080CDF81480DCE726490A6059E7C2EB00
:10FE90000C0222F07F428A4209D28B1A236085E746
:10FEA000C91A11602360E2613346C46197E7276095
:10FEB0006760A76084F81080E76156B1316800235D
:10FEC000CB1A33602346E661A2464FF0010B1E4673
:10FED00086E72346A2464FF0010B1E4680E75C688A
:10FEE000227C009282B99A686260D968A160186920
:10FEF000E0605B69A361069B002B00F0F180009A33
:10FF0000626000932A4649E733461E4668E700BF11
:10FF10004C3100204D31002040310020583100206C
:10FF200050310020443100204E31002000100140AB
:10FF3000FEFF7F00009B5A46002B40F0AE8112B1BD
:10FF4000824BC3F800A0059BB34200F0BF80002E97
:10FF500000F00A817E497F4CD1F80405257833688A
:10FF6000CCEB000222F07F420332002D50D17A4DBB
:10FF7000DFF8ECE1794F4FF48036C1F84463C1F803
:10FF800004634FF40036C5F880612E6001250D60D2
:10FF9000DEF800602F2100BF00BF00BF00BF00BF20
:10FFA00000BF00BF00BFBE422FD000BF00BF00BFD8
:10FFB00000BF00BF00BF00BF00BF00BF00BF00BF49
:10FFC00000BF00BF00BF00BF00BF00BF00BF00BF39
:10FFD00000BF00BF00BF00BF00BF00BF00BF00BF29
:10FFE00000BF00BF00BF00BF00BF00BF00BF00BF19
:10FFF00000BF00BF00BF00BF00BF00BF00BF00BF09
:020000022000DC
:1000000000BF00BF00BF00BF00BF0139C3D12570D2
:1000100093422CBF9C4494444D492CF07F43C1F83B
:100020004035D1F80425121A1B1A22F07F4223F022
:100030007F4303329A424DD9D1F80435484AC1F87A
:100040004035126845492F2300BF00BF00BF00BFE5
:1000500000BF00BF00BF00BF8A422FD000BF00BF5B
:1000600000BF00BF00BF00BF00BF00BF00BF00BF98
:1000700000BF00BF00BF00BF00BF00BF00BF00BF88
:1000800000BF00BF00BF00BF00BF00BF00BF00BF78
:1000900000BF00BF00BF00BF00BF00BF00BF00BF68
:1000A00000BF00BF00BF00BF00BF00BF00BF00BF58
:1000B00000BF00BF00BF00BF00BF00BF013BC3D1F6
:1000C000254B4FF40032C3F8002103E0079B002BBF
:1000D0007FF43DAF234A0023137009B0BDE8F08FD1
:1000E000039B00935AE6194ADDF800C01768002008
:1000F000054601460446ABB11A68B2421BD8D8681F
:100100001C60B61A1144DA6938B10CEB010727F00C
:100110007F47DD6198605F601D4613461746704655
:10012000002BE9D1002840F0BC8000230593012377
:100130000793059E19E6002840F0AC80921B0593BA
:100140001A6001230793059E0FE600BF443100208B
:10015000001001406031002000E100E00024F400C4
:10016000B42C00204E3100204F4A504B504D514886
:100170004FF480314FF400370124C3F88070C2F887
:1001800048132F23C2F80813546029681D4600BF86
:1001900000BF00BF00BF00BF00BF00BF00BF814263
:1001A0002FD000BF00BF00BF00BF00BF00BF00BF17
:1001B00000BF00BF00BF00BF00BF00BF00BF00BF47
:1001C00000BF00BF00BF00BF00BF00BF00BF00BF37
:1001D00000BF00BF00BF00BF00BF00BF00BF00BF27
:1001E00000BF00BF00BF00BF00BF00BF00BF00BF17
:1001F00000BF00BF00BF00BF00BF00BF00BF00BF07
:1002000000BF013DC3D194602B4A166000BF00BF00
:1002100000BF00BF00BF00BF00BF00BF81422FD0A2
:1002200000BF00BF00BF00BF00BF00BF00BF00BFD6
:1002300000BF00BF00BF00BF00BF00BF00BF00BFC6
:1002400000BF00BF00BF00BF00BF00BF00BF00BFB6
:1002500000BF00BF00BF00BF00BF00BF00BF00BFA6
:1002600000BF00BF00BF00BF00BF00BF00BF00BF96
:1002700000BF00BF00BF00BF00BF00BF00BF00BF86
:10028000013BC3D10D4B1E7024E70D4A9DF81010A1
:1002900011705EE50B490F6050E70B4B83F800E0EF
:1002A0004DE6084B1F6040E70010014000E100E010
:1002B000B42C00200024F4004031002060310020E4
:1002C0004E31002044310020503100202DE9F0470C
:1002D00012F0030402D00720BDE8F087002AFAD00C
:1002E0005F4D604EDFF88891DFF888C14FF4803EA3
:1002F0004FF400374FF00108C6F88070C5F848E3A6
:100300002F27C5F808E3C5F80480D9F800E0B946FE
:1003100000BF00BF00BF00BF00BF00BF00BF00BFE5
:10032000E6452FD000BF00BF00BF00BF00BF00BF29
:1003300000BF00BF00BF00BF00BF00BF00BF00BFC5
:1003400000BF00BF00BF00BF00BF00BF00BF00BFB5
:1003500000BF00BF00BF00BF00BF00BF00BF00BFA5
:1003600000BF00BF00BF00BF00BF00BF00BF00BF95
:1003700000BF00BF00BF00BF00BF00BF00BF00BF85
:1003800000BF00BFB9F10109C2D1C5F8088000BFA4
:1003900000BF00BF00BF00BF00BF00BF00BFE645F9
:1003A0002FD000BF00BF00BF00BF00BF00BF00BF15
:1003B00000BF00BF00BF00BF00BF00BF00BF00BF45
:1003C00000BF00BF00BF00BF00BF00BF00BF00BF35
:1003D00000BF00BF00BF00BF00BF00BF00BF00BF25
:1003E00000BF00BF00BF00BF00BF00BF00BF00BF15
:1003F00000BF00BF00BF00BF00BF00BF00BF00BF05
:1004000000BF013FC3D1DFF870E0DFF870A0164FE6
:10041000DFF86C90DFF86C80DFF86CC08EF800407D
:10042000CAF800304FF4801EE023B9703C707C7035
:10043000C9F8004088F800408CF800400B49C6F825
:1004400080E186F81433C6F800E0C5F8080586F8A0
:100450001133D5F804350B607A602046BDE8F0878B
:100460000010014000E100E0503100204031002048
:10047000B42C00200024F40060310020483100201A
:10048000443100204C3100204D310020074B5B6887
:1004900023B12AB120B10368187C18B10820704735
:1004A0000720704759745A61704700BF50310020CF
:1004B0002DE9F043274C636883B033B128B1042998
:1004C00007D8072003B0BDE8F083082003B0BDE8DB
:1004D000F0834369002BF8D0054602A86B7C002608
:1004E000012B00F8016D0CBF8946B14690460F46BE
:1004F00000F074F86378A07821785A1CD2B2904248
:1005000008BF324691421FD003EB43036068DB0013
:10051000C11819D04FF0010E00F803E00E4B4D60EA
:10052000D3F804358B609DF80700CF60C1F81090B8
:10053000C1F81480627000F079F8084B4FF4801213
:100540003046C3F80021C1E79DF8070000F06EF8BF
:100550000420BBE7503100200010014000E100E022
:10056000F0B51C4E736883B053B348B343693BB3D3
:10057000054602A8002400F8014D2C7400F02EF866
:100580007378B07831785A1CD2B2904208BF2246B4
:10059000914218D003EB43037168DB00CF1812D0EF
:1005A0000220C8547D609DF80700727000F03EF88C
:1005B000094B4FF480122046C3F8002103B0F0BD70
:1005C000082003B0F0BD9DF8070000F02FF80420CC
:1005D000F7E700BF5031002000E100E0F0B4EFF396
:1005E000108472B60E4B9A68B2B90E4901259D600F
:1005F000D1F880700C4D2E463D401D60C1F88060E2
:10060000D1F884505D604FF0FF33C1F88430027040
:1006100004B962B6F0BC704701230370F8E700BF6D
:10062000203C002000E100E0FC06FFBC094B9A687A
:1006300072B168B910B4EFF3108272B606491C6843
:100640000C605C684C60986002B962B65DF8044B5F
:10065000704700BF203C002000E100E0F0B52B4CCB
:100660002B4F6368668883B0002B48D036015A88C8
:10067000B9190332496803EB820201F580508242C6
:1006800025D21368013318BF4FF6FF751FD093882A
:10069000AB4213D013888BB162601E4853888688A2
:1006A00001681D480025033300959BB201EB8601CC
:1006B0000325257001F03EF803B0F0BD53880333E5
:1006C00002EB8302824202D213680133DFD13E443F
:1006D000B38963B10F4D104829680227052600230E
:1006E0000122AF80267001F07DF803B0F0BD012239
:1006F000094801F077F80423237003B0F0BD3601F8
:10070000BB19596801F10802B7E700BFCC310020DE
:10071000AC3100205C320020C42C0020F0B54368CE
:100720008E464BB1304A1468A34205D352689342B7
:1007300002D813F0030236D000232C4EAEF800305E
:100740004FF0010C4FF6FF757768002307F58054D2
:10075000C3B15A88033203EB82039C4216D91A684C
:10076000013213D09A88AA42F3D01A88002AF0D016
:10077000026899689142EBD11D4A43601389038155
:100780000120F0BD07F108039C42E8D80CF10103F9
:10079000AEF800C01FFA83FCBCF1030F06F110068F
:1007A000D2D10020F0BD124C05892489A542C3D1C5
:1007B00005689C68A542BFD10C4C6068834205D98E
:1007C00000F58050834201D2134608E062699342EB
:1007D000E7D902F58052934238BF0123E1D2AEF847
:1007E00000300120F0BD00BFC42C0020AC3100203F
:1007F000CC310020B3F804C0BCF1010F54D82DE96E
:10080000F043DFF8AC8091464FF6FF7700224FEAC5
:100810000C1408EB040E18F80440002C33D11C68AB
:10082000002C3CD06588DEF80460033504EB8504B9
:1008300006F58056A64225D92568013522D0A5881F
:10084000BD4219D02588BDB11C6018B1A6880588A5
:10085000AE42E5D119B126880D88AE42E0D1A2683A
:10086000C9F800201A68114BC9F804201B89A9F89F
:1008700008300020BDE8F0836588033504EB85046B
:10088000B442D9D31A600CF1010C1FFA8CFCBCF1F4
:10089000020FA3F804C0BAD10A20BDE8F083DEF845
:1008A000046006F10804C3E70A207047CC31002039
:1008B000AC3100202DE9F04FAF4C256FEF007E1BCF
:1008C000B6008BB0A25D531E804604EB060BA1461A
:1008D000052B00F2CF82DFE803F06748481E1E03B5
:1008E000002840F0D680DFF8ACE29EF80C30002BF8
:1008F00000F017839EF800308EF80C00013B062BA9
:1009000000F2B782DFE813F0E60297028E016E0173
:10091000B502A2027C02002840F0BC80C5EB070AA9
:1009200004EB8A03029393F804A0BAF1010F00F0DC
:100930003E83C0F02883BAF1020F41F61D5318BF61
:100940000F2341F61D518B4200F0AA8019F80610C2
:1009500006938B1E012B40F2C480013A052A33D83E
:10096000DFE802F075907966592F7B1B04EB830357
:100970008249B3F812A001EB0A1A002840F09B80CC
:10098000BAF80800DAF804101B7C01EB8001029130
:10099000062B00F28A83DFE813F05D01A8018901CC
:1009A000F101DB01C901C60100287CD19BF80430AC
:1009B000032B00F27C83DFE813F00801F100CE0086
:1009C0009E0005238DF814306D4D05F1200655F875
:1009D000043F0BB105A89847B542F8D1206F664D8A
:1009E000C0EBC00004EB80001C220021FEF7AAFD32
:1009F000636F43B12A6F0132013B02F003026B6760
:100A00002A67002B67D15F4A137823F00403137021
:100A10000BB0BDE8F08F7B1B04EB83030422DB8863
:100A2000ADF8203000238DF81420ADF82230CBE74C
:100A30007B1B04EB83030322D8881989DB680793A7
:100A4000ADF82000ADF822108DF81420BCE700238B
:100A50008DF81430B8E77B1B04EB830302211A7C6A
:100A60001E899D88D868ADF82060A2F10603B3FA0C
:100A700083F35B098DF82430ADF8225007908DF890
:100A80001410A1E77B1B04EB8303012218899988CA
:100A9000D4E70622012341F61D518B427FF456AF65
:100AA0000023069359E737490B78012223F001030D
:100AB0000B70134645E7D888BAF80A30BAF8081020
:100AC00000F1030E1B1A033B7144AAF80A30AAF87E
:100AD0000810012335E70020FFF7ECFE0BB0BDE85E
:100AE000F08F294B9BF81660186C596C3044891BA9
:100AF0001864596431E7DFF8A080244AD8F8001060
:100B000023484FF0000A0223CDF800A000F012FEA7
:100B1000204B1A495B88D8F800E08BF804A01B0131
:100B2000CA1801F803A05368B8F80410C8F80030D8
:100B30000223C2F804E01181A8F8043000283FF431
:100B400067AF7B1B14F823200E490B7823F00103B9
:100B50000B700E23F5E6DFF840800D48D8F8001042
:100B60000023012200F03EFE02220023A8F8042008
:100B70008BF80430E2E700BFE4310020AC31002004
:100B800074320020703200206431002034AD020045
:100B9000C42C0020CC3100205C320020DFF8E88239
:100BA00098F80030022B00F07E8298F81030022B6B
:100BB00000F06782B04A137843F0020323F0010388
:100BC0001370012241F61D53BBE6AC4BAC4A1968C9
:100BD000AC4800230093022300F0ACFD01238BF806
:100BE0000430ABE7A84BBEF80220DFF8B08203EB7D
:100BF00002129389002B00F01782A04BA1481968BC
:100C000002229A800522002388F80020012200F0A9
:100C1000E9FD0346002B3FF4FBAE1C2202FB05F26C
:100C2000A25C93E69549DEF80420B1F804C0096897
:100C30005388944801EB8C014FF0000CCDF800C0B4
:100C400003334FF0030C9BB28EF800C000F072FD2E
:100C50000346DFE77B1B9B0004EB030803930023A1
:100C6000009302998748012308F1040200F062FD15
:100C7000022388F8103000283FF4CAAE039B834A51
:100C8000D25C0E23781B04EB8000BAF80A10B0F88F
:100C900006E0BAF808000EF1030CCEEB0101604447
:100CA0000339AAF80800AAF80A104AE6C5EB0708B3
:100CB0004FEA880802997348002304EB08020831C0
:100CC0000C320093012300F035FD04EB08036F495B
:100CD0009A7D002A0CBF012203221A7400283FF4D7
:100CE00097AE11F808200E23CCE7C5EB07084FEAB2
:100CF00088080299634804EB08031A46002304316C
:100D0000029200930832012300F014FD14F8082029
:100D10000299032A0CBF052306230B7400283FF415
:100D200077AE0E23AEE741F61D53ABE7584B594A59
:100D30005968544800230093012300F0FBFC00286D
:100D400040F06B817D1B04EB8504062323745FE672
:100D50007B1B4FEA830804EB08024D4B92691A6033
:100D60001846002205A95A60FFF7D8FC00287FF436
:100D700071AF464B13F808200A23E2E5DFF820E1C3
:100D8000DEF844C0BCF1000F00F02681DEF8401010
:100D90003C485EF83120C5EB070804EB88080EEBF1
:100DA000C10301310CF1FF3C01F00701CEF8401006
:100DB000CEF844C00299B8F814E0039301EB8E0119
:100DC0004FF0000E9B88CDF800E000F0B3FC039AD2
:100DD00098F81630B8F814109288013B0A44DBB238
:100DE000A8F8142088F8163013B9012388F81030B9
:100DF00000283FF40DAE7A1B0E2314F8222041E7A1
:100E00001E4B1F4A19681F4800230093CEF8043078
:100E100007238EF80030022300F08CFC0346F9E62D
:100E2000164ADEF80410938849880B4403330221E4
:100E300093808EF80010FFF711FC0346002B3FF45F
:100E4000E7AD1C2202FB05F2A25C7AE5BEF8023097
:100E5000DFF834801B0143440022062059680092C9
:100E600002238EF800000C4A064800F063FC03469B
:100E7000D0E606220F2364E5703200205C320020A9
:100E80002CAD0200C42C0020AC310020E431002045
:100E9000643200203CAD020034AD0200CC310020B1
:100EA00064310020834BBEF808101A781B7CB2FA1C
:100EB00082F2B3FA83F352095B0901318EF80A20FA
:100EC0008EF80B3000220123AEF808108EF80C20AB
:100ED0008EF800309EF80A30774A43B175498B8905
:100EE000002090721BB98A7B002A40F0C4809EF8D3
:100EF0000B30714A43B16F4B998B0020D07219B9F6
:100F00009B7F002B40F0B6807A1B00238EF80030C8
:100F1000AEF80230CEF8043014F8222041F61D530A
:100F20000FE59EF80030072B3FF6E8AC01A252F81F
:100F300023F000BFA50E0200FD080200FD0802001C
:100F4000210E02005D0F0200010E0200010E0200E0
:100F5000550F020001238EF80030BBE7BEF80230C7
:100F6000DFF85081554A1B0108EB03001168D0F8E7
:100F700004A0B2F804C041600221C2F800A0A0F8A9
:100F800008C0918067E7DB68CDF8188005A80DF1EF
:100F90001201CDF81C800593FFF7C0FB00284DD14E
:100FA0000A237A1B04EB82020221117132E6444BC0
:100FB0001B789B0713D40223082200214148029387
:100FC000FEF7C0FA029B0A2B7FF438AF7A1B41F67A
:100FD0001D5314F82220B4E4DCF80030FFDE029840
:100FE000384B063005AA4146FFF704FC03460028AB
:100FF000E2D15346344A0699CDF80080334800F0D8
:1010000099FB304A2B4B928803EB021200280CBF4D
:1010100043460E2382F80EA0D5E77B1B9B00E11808
:101020000620E25C08747CE651682848012200F042
:10103000D9FB0422034688F80020EBE506990298C4
:101040008B88C380B1F800E01F4ACDF800800123EF
:10105000A0F808E01D4800F06DFB164BBDF812200B
:1010600003EB021200284FF0010114BF0E230023EE
:10107000917396E70123AEF80230FFF7EFFA0346CB
:10108000DCE601234FEA031A08EB0A03104A596809
:101090000E4800230093022300F04CFB4FF00003A6
:1010A00008F80A304AE50023ECE70F23EAE50122BD
:1010B0004AE500BFAC310020CC3100205C3200207A
:1010C00070320020DC3100203CAD0200C42C002036
:1010D00034AD02000846FFF7EDBB00BF2DE9F04F2D
:1010E0000F894C6885B006463D46002F00F0AE8063
:1010F000206810F0030040F095809E4604E054F80C
:1011000030309B0740F08E8001308742F7D1734624
:10111000002A00F08B80B2F8009052880094BB4601
:101120006548DFF8A8C10768DCF87480032B07F175
:101130000107076003BF306803904FF0040A4FF0C7
:10114000000AB8F1030F60D8DFF870E1DEF8440060
:101150000446C5F108008442019456D8DCF87000BA
:101160000C884988029108EB000101F00301C1EBF2
:10117000C10189000CEB01000CF80130C280039A18
:10118000826108F101080023BDF8081081804FF04A
:1011900003020481C76080F810A0A0F8129080F8C4
:1011A00016B082824381CCF87480E5B1DEF840202D
:1011B000019C144404F00702009C0EEBC2020EF1E5
:1011C000380804EBC30103C9013302F1080C82E8BB
:1011D0000300424514BF624672469D423749F0D132
:1011E0004B6C2B444B6436B10023354A3760736037
:1011F0001289B372328133490B7803F0040202F092
:10120000FF04002A41D0002009E02F4B03EB09190D
:101210000820B9F80A30033B9A1AA9F80A2005B049
:10122000BDE8F08F032005B0BDE8F08F04EBC70EDA
:10123000A08808340244A64592B2F9D1D01C80B2ED
:1012400040F2FD34A04205D90920E8E7002A7FF4E6
:1012500062AF03201C4C94F80090B9F1000F07D145
:10126000678925893D440544ADB2B5F5806F21D32A
:10127000277C154D3FB96F8B2D8B3D440544ADB296
:10128000B5F5806F09D30720C9E743F00403204672
:101290000B70FFF70FFB2046C1E74FF001094D46E9
:1012A00004EB051438446081B1F808B04868009038
:1012B0005D4635E74D46F3E7743200206431002087
:1012C000CC31002070320020AC310020E43100200D
:1012D00060B159B130B583B00C460DF10601054639
:1012E000FFF71CFA20B90A2003B030BD0520704773
:1012F000BDF80620074B686803EB021301219A89A9
:101300000A449A8120606B6800200C336360A972E4
:1013100003B030BDAC31002050B110B582B00DF13A
:1013200006010446FFF7FAF920B90A2002B010BD01
:1013300005207047BDF80620084B03EB02139A897D
:1013400012B9062002B010BDA17A0029F9D00021FF
:10135000013A9A810846A172E8E700BFAC3100204B
:101360001E4B1B789B0702D402231846704740B1DE
:10137000CB1C9BB240F2FD32934205D9092318469B
:10138000704705231846704770B4154A167896B909
:101390005489158925441D44ADB2B5F5806F0AD234
:1013A000354602EB05122344538106804180002319
:1013B000184670BC7047147C094D54B96C8B2D8B4A
:1013C00025441D44ADB2B5F5806F02D201263546E5
:1013D000E7E70723184670BC704700BF7032002053
:1013E000AC310020124B1B789B0702D40223184615
:1013F0007047C8B10388022B02D9042318467047EE
:1014000010B40C49448801EB03135A89111B0329BA
:101410000CD4033A0021121B5A810B4601804180F3
:1014200018465DF8044B70470523E0E70423F7E70F
:1014300070320020AC3100200D4B1B789B0701D48B
:101440000220704759B110B40C884FF6FF739C42CC
:1014500001D04B882BB904205DF8044B7047052060
:101460007047022300225DF8044BFFF737BE00BF30
:10147000703200203AB130B40C4C2478A30704D465
:10148000022030BC70470520704769B10D884FF6C7
:10149000FF74A54201D04B8813B9042030BC7047BB
:1014A000022330BCFFF71ABE0520EAE770320020A5
:1014B00028B10E4A1278930703D402207047052002
:1014C00070470029FBD010B40C884FF6FF7294428D
:1014D00001D04B881BB904205DF8044B70470323EF
:1014E00000225DF8044BFFF7F9BD00BF7032002009
:1014F000F8B51A4A1378990701D40220F8BD4FF6BF
:10150000FF7188421DD0164D6C6F032C1BD81549F6
:10151000496C082917D8296F214401F00301C1EB58
:10152000C10189006F18661C05246C54012403F066
:1015300004013C71F88001F0FF046E6729B10020BE
:10154000F8BD0420F8BD0820F8BD43F00403204690
:101550001370FFF7AFF92046F8BD00BF70320020CE
:10156000E43100206431002010B50C4C82B0ADF89D
:1015700006002078ADF80410810702D4022002B0E2
:1015800010BD3AB133B101A90DF10600FFF732F9F0
:1015900002B010BD052002B010BD00BF70320020A7
:1015A00000B50D4B83B0ADF806001878830703D45F
:1015B000022003B05DF804FB51B14AB1134600208C
:1015C0000A460DF10601FFF715F903B05DF804FBBB
:1015D000052003B05DF804FB7032002000B50D4B10
:1015E00083B0ADF806001878830703D4022003B057
:1015F0005DF804FB51B14AB113460DF106000A46ED
:101600000021FFF7F7F803B05DF804FB052003B0F5
:101610005DF804FB7032002020B119B103680B6043
:10162000002070470520704729DF704728DF70478A
:1016300070B50C4D696E042911D02B6E0B44032B31
:1016400088BF043B182202FB035406464B1C20466D
:1016500000216B66FDF776FF3460012070BD00202D
:1016600070BD00BF9C32002070B5304C636E84B0FA
:101670007BB1256E6E00731904EBC3031A7A012A3D
:1016800009D0022A26D19889FFF7D0FF112818D057
:1016900000BB04B070BD70199A8ADB8A04EBC000ED
:1016A000D21AC1680069B2F5806F4FEA8303B4BFF4
:1016B00092B24FF4806219441844FFF7B5FF112825
:1016C000E6D11B4A137823F0020343F0040313709E
:1016D00004B070BD102268460021FDF733FF731976
:1016E00004EBC3031A7A012A17D0022A09D19A8976
:1016F000DB89ADF80A20D21A0123ADF808208DF855
:1017000000303544ED006219635952680192684611
:101710009B680921984704B070BD1A699B8A0292A0
:1017200000218DF80010ADF80C30EAE79C32002063
:10173000983200202DE9F041274C2578EE0782B041
:1017400012D510B1254DA84203D2022002B0BDE847
:10175000F081234DA842F8D252B149B142EA0105C5
:10176000AD0707D00620F1E7012002B0BDE8F08107
:101770000320EBE70568A94201D20520E6E74668A9
:1017800001EB8305AE42F8D30BB90420DEE78046B7
:1017900001A81E4615460F46FFF74AFF08B9072065
:1017A000D4E701992378C1F80080019A089848602D
:1017B00013F006044FF00101D56017619682117293
:1017C000054A01D00020C1E743F002031370FFF780
:1017D0004BFF2046BAE700BF98320020C42C0020FF
:1017E000D42C00202DE9F041244C2578ED0782B05F
:1017F00010D510B1224DA84203D2022002B0BDE89C
:10180000F081204DA842F8D241B1C1F30B053DB1A2
:101810000620F3E7012002B0BDE8F0810320EDE7E8
:101820000568A94201D20520E8E7466801EB0235C8
:10183000AE42F8D30AB90420E0E7804601A81E466C
:1018400015460F46FFF7F4FE08B90720D6E70199C1
:101850002378C1F80080019A4E600220390B13F002
:101860000604918115821072044A01D00020C5E758
:1018700003431370FFF7F8FE2046BFE798320020BD
:10188000C42C0020D42C002020B1034B5B6E0360DD
:1018900000207047032070479C3200202DE9F0475C
:1018A000DFF8B082A94C98F80030266E990784B012
:1018B00079D5022800F0B680032840F0AF80A44D0F
:1018C0002B780133DBB2032B2B7040F2A78000276B
:1018D00010222F70394668467500FDF733FEAB19AC
:1018E00004EBC303E9461A7A012A00F0E180022AD8
:1018F00009D19A89DB89ADF80A20D21A0123ADF803
:1019000008208DF800303544ED00621963595268A3
:1019100001929B688D4F484608219847636E013BB2
:101920006366002B40F0FD803A6E98F8001001329B
:1019300021F00201042A88F800103A6630D100260E
:1019400026666BB37500AB1904EBC303AA1904EB4D
:10195000C202117A01293DD002297FD010226846A7
:101960000021FDF7EFFDAB1904EBC303E9461A7A3A
:10197000012A7ED0022A09D19A89DB89ADF80A2092
:10198000D21A0123ADF808208DF800303544ED005F
:10199000621963595268019248469B680921984729
:1019A00004B0BDE8F0875A0738D5626E03F0FB0338
:1019B00088F80030002AF3D0750043F00203AA191A
:1019C00088F8003004EBC203AA1904EBC202117AB2
:1019D0000129C1D1D38AAA1904EBC202A819928A9B
:1019E00004EBC000D21AC1680069B2F5806F4FEAFB
:1019F0008303B4BF92B24FF4806219441844FFF7D6
:101A000013FE11282FD198F8003023F0020343F081
:101A1000040388F8003004B0BDE8F087636E002B43
:101A200090D1BDE77500AB1904EBC307484A3B7A78
:101A30004FF0000A012B82F800A023D0022BEDD139
:101A4000FB89BA89398A01339BB201329942FB8101
:101A5000BA8155D0636E002BA2D03B469889FFF720
:101A6000E5FD1128CFD000287FF478AF04B0BDE8A1
:101A7000F0871A699B8A029200218DF80010ADF858
:101A80000C3083E7FB8AB88AC21AB2F5806FB4BF04
:101A900092B24FF480621344A9199BB204EBC107C0
:101AA0009842FB82294A0BD0526E002A93D177E7E5
:101AB0001A699B8A8DF800700292ADF80C3022E70B
:101AC000684610220021FDF73DFD3B7A012BE946D7
:101AD00032D0022B09D1FA89BB89ADF80A309B1AA2
:101AE0000122ADF808308DF80020AB19DB00E218B8
:101AF000E3585268019248469B68144F00210CE756
:101B0000684610225146FDF71DFD3B7A012BE94640
:101B1000DFD13A69BB8A8DF800A00292ADF80C3093
:101B2000E3E73E6E0136042E3E663FF408AF7500D3
:101B3000AB1907EBC30309E73A69BB8AADF80C3070
:101B400000218DF800100292CFE700BF9C320020E8
:101B50000433002098320020C30710D4810710D42A
:101B6000420710D4030710D4C10610D4820610D443
:101B7000430610D4C30910D14FF6FF707047002000
:101B800070470120704702207047032070470420EF
:101B9000704705207047062070470720704700BF38
:101BA000E8B1E1B110B4048894422AD04488944248
:101BB00029D08488944228D0C488944227D00489AC
:101BC000944226D04489944225D08489944207D0F7
:101BD000C089904208BF072403D05DF8044B7047CA
:101BE000062433B10878012202FA04F303430B7090
:101BF000F3E70A78012000FA04F322EA03030B70EA
:101C0000EBE70024EDE70124EBE70224E9E70324F6
:101C1000E7E70424E5E70524E3E700BF2DE9F04307
:101C20009DF81C4008B301B3FAB105889D4200F04D
:101C3000E48045889D4200F0E68085889D4200F062
:101C4000E480C5889D4200F0E28005899D4200F055
:101C5000E08045899D4200F0DE8085899D4206D066
:101C6000C089984208BF072002D0BDE8F083062053
:101C700001238340484200F003009042DBB228BFBA
:101C80001046002C5BD1042A00F2AF8010460D787C
:101C9000DC43E4B2254001280D7000F0B2804D789D
:101CA000022805EA04054D7000F0AB808D78042809
:101CB00005EA04058D7040F0B480CD782C40CC70DE
:101CC00004468242D1D0C0EB020EAEF10406551E8E
:101CD000B6082D1A0136022D4FEA860C1AD90025B6
:101CE00063F3070563F30F2563F31745084463F3B4
:101CF0001F65ED43A0F104094FF0000859F8047F77
:101D000008F101082F40B04540F8047BF6D3E645C2
:101D10006444AAD00D5DDB43D8B200EA0503651C1C
:101D2000AA420B55A1D94E5DA31C9A4200EA0604B3
:101D30004C5578D9CA5C1040C854BDE8F083042AD9
:101D400057D810460C78012844EA03040C7056D08A
:101D50004C78022844EA03044C7050D08C78042854
:101D600044EA03048C705AD1CC781C43CC700546ED
:101D7000824252D0C0EB020EAEF10406541EB608E9
:101D8000241A0136022C4FEA86081AD94FF0000CAB
:101D900063F3070C63F30F2C084463F3174C63F3EE
:101DA0001F6CA0F10409002759F8044F01374CEAD1
:101DB0000404B74240F8044BF6D3C64545443FF40B
:101DC00054AF485D6C1C1843A24248557FF64DAF96
:101DD0000E5DA81C824243EA06050D557FF645AF0D
:101DE0000A5C13430B54BDE8F08300283FF46BAF4B
:101DF0004DE705460028BDD0A4E7002038E705469A
:101E0000B6E704465DE7012032E7022030E7032011
:101E10002EE704202CE705202AE7BDE8F083032500
:101E2000A6E703244DE7BDE8F08300BFD0B10388E7
:101E300093421ED0438893421DD0838893421CD086
:101E4000C38893421BD0038993421AD0438993429B
:101E500019D08389934206D0C389934208BF0720D3
:101E600002D000207047062041FA00F000F0010087
:101E700070470020F8E70120F6E70220F4E703208E
:101E8000F2E70420F0E70520EEE700BF00293AD092
:101E900012F0010330B402D00B8883800123950730
:101EA00004D500EB43044D88A5800133540704D5C5
:101EB00000EB43048D88A5800133150704D500EBA2
:101EC0004304CD88A5800133D40604D500EB430438
:101ED0000D89A5800133950604D500EB43044D8997
:101EE000A5800133540604D500EB43048D89A580F9
:101EF0000133D20904D000EB4302C9899180013338
:101F0000036030BC70470160704700BF064A4FF065
:101F1000A043105CD3F8043523FA00F000F0010070
:101F200080F00100704700BF44AD0200044B195C13
:101F30004FF0A04201238B40C2F80C35704700BF20
:101F400044AD0200044B195C4FF0A04201238B40CA
:101F5000C2F80835704700BF44AD02004FF0A043FF
:101F600010B44FF480204FF400344FF400214FF4AC
:101F70008012C3F80845C3F80805C3F80815C3F86C
:101F800008255DF8044B70474FF0A04310B44FF4A0
:101F900080204FF400344FF400214FF48012C3F836
:101FA0000C45C3F80C05C3F80C15C3F80C255DF8F7
:101FB000044B7047084B4FF0A0411B5CD1F804055F
:101FC000012202FA03F323EA00020340C1F80825C4
:101FD000C1F80C35704700BF44AD020030B44FF07B
:101FE000A04303224FF400354FF480244FF4002027
:101FF0004FF48011C3F84427C3F84827C3F84C278F
:10200000C3F85027C3F80855C3F80845C3F80805B6
:10201000C3F8081530BC7047064A4FF0A043105C67
:10202000D3F8103523FA00F000F0010080F0010031
:10203000704700BF40AD02000D2809D00E2809D01E
:102040000F2809D010280CBF03204FF0FF30704735
:10205000002070470120704702207047014B185C38
:10206000704700BF40AD020010B51A4B1A6882B02D
:10207000A2B100221A601B6800934FF08043012236
:10208000154C0099C3F80823A368627033B10CCBD8
:102090000020A2609847A368002BF8D10F4B1A6864
:1020A000AAB100221A601B6801934FF080430222FC
:1020B000094C0199C3F8082323690122A27033B1A6
:1020C0000CCB0120226198472369002BF8D102B084
:1020D00010BD00BF00010040083300200401004093
:1020E00058B910B5054CA36833B10CCB0020A260E1
:1020F0009847A368002BF8D110BD70470833002023
:1021000010B582B002A80023144C00F8013DFEF780
:1021100065FA237893B9124A6360E3601068A3609C
:1021200010F00100236114D007F0BAFF20B94FF07E
:1021300080430122C3F8182501232370E3689DF82A
:10214000070001330122E360A270FEF76FFA02B0CC
:1021500010BD072100F006F8E6E700BF08330020B5
:1021600000E100E0002810B418DB00F1604303F543
:1021700061434901C9B283F80013C3B2400980002A
:1021800000F1604000F5614003F01F02012393401D
:10219000C0F8803103605DF8044B7047C3B2044A55
:1021A00003F00F0449012244C9B21176E6E700BFEB
:1021B000FCEC00E030B51D4C94F8545083B015B1E0
:1021C000082003B030BD4FF0FF33FF220721062067
:1021D00023636363A363E36323646364A364E364CB
:1021E00023606360A360E36023616361A361E361D3
:1021F000236284F850306362A36284F85230E36251
:1022000084F8533084F85120FFF7ACFF084B094A9B
:102210001D601B68019301984FF00043012128467F
:1022200084F85410C2F8043303B030BD1C330020CE
:102230007C61004000600040034B93F85400003084
:1022400018BF0120704700BF1C33002070B43A4B08
:102250001A1892F93040013402D0082070BC70473F
:102260008C78DCB11A6801325AD05A68013259D0E0
:102270009A68013258D0DA68013257D01A690132AF
:1022800056D05A69013255D09A6901321BD0DA69A9
:10229000013208BF072517D00420DFE7FE2382F8AC
:1022A00030304B78012B35D001234FF0A0428340D2
:1022B000C2F80C3500F5E0704FF0A043032243F85C
:1022C00020200020CAE70625AA0002F1804202F57C
:1022D000C0421E18002443F8254086F83050D2F83A
:1022E00010450D784B7824F4981424F4F8542D04F8
:1022F0001B05C2F8104505F4403503F480130402B1
:102300002B4304F4F854D2F8105523432B43C2F85E
:102310001035C6E74FF0A0428340C2F80835C9E740
:102320000025D1E70125CFE70225CDE70325CBE73F
:102330000425C9E70525C7E71C33002001234FF01A
:10234000A04203FA00F0C2F80805704701234FF0DD
:10235000A04203FA00F0C2F80C057047F0B5624CD9
:10236000251895F93030002B01DB0820F0BD91F8DD
:1023700003E09446BEF1000F56D02368013300F00D
:10238000A380002508266B1C574F54F823200132E8
:1023900051D0AB1C9E4245D957F8232001324AD078
:1023A000EB1C9E423ED957F82320013243D02B1D0F
:1023B0009E4237D957F8232001323CD06B1D9E42F4
:1023C00030D957F82370013735D0AB1D9E4229D93B
:1023D00054F82320444F01322DD0EB1D9E4221D9C9
:1023E00057F82320013226D005F108039E4219D95F
:1023F00057F8232001321ED005F109039E4211D95E
:1024000057F82320013216D005F10A039E4209D95C
:1024100057F8237001370ED00B35AE4202D9E36A6C
:10242000013307D00420F0BD236A013353D00825BF
:102430000C26A8E70B2326185DB244F823C086F8C3
:102440003050BEF1000F02D1234483F848008B784E
:10245000A3B94A784FF0A04600F5E073920046F821
:102460002320CB78A3B9083D2C44097894F8502058
:1024700042EA811284F850201846F0BD830003F12F
:10248000A043D3F8002722F00202C3F80027E8E7B0
:10249000AB0003F1804303F5C0430A78D3F810156D
:1024A00021F4473121F44071C3F8101512040002E1
:1024B00002F44031D3F8104500F4F8520A432243A5
:1024C000C3F810250020F0BD002385F83030C4F893
:1024D00000C01D46BBE7082685F830603346C4F8C7
:1024E00020C03546B0E700BF1C330020F0B42E4DAD
:1024F0002E1882B096F93030072B1CDD2B4493F850
:1025000048309B09032B41D0012B14BF4FF44033BB
:102510004FF40033800000F1A040D0F8002722F4EF
:102520004032C0F80027D0F800271343C0F8003726
:1025300002B0F0BC7047DAB2072AF9D8980000F16F
:10254000804000F5C04003F140029200D0F81045F1
:1025500092B202F18042002744F0010402F5C04229
:10256000C0F810450197019817600029E0D096F94E
:10257000302055F82220002ADAD001220B4902FA35
:1025800003F3C1F8043302B0F0BC70474FF0A0432E
:10259000D3F81035C34013F0010F0CBF4FF40033D4
:1025A0004FF44033B6E700BF1C330020006000400A
:1025B0004FF0A043D3F8103523FA00F000F00100EB
:1025C000704700BF2DE9F04387B00026C94B019644
:1025D0001A68012A00F00482C74B1A68012A00F029
:1025E000F181C64B1A68012A00F0DE81C44B1A68DB
:1025F000012A00F0CB81C34B1A68012A00F0B88190
:10260000C14B1A68012A00F0A581C04B1A68012A43
:1026100000F09281BE4B1A68012A00F07F81BD4B09
:102620001A68012A00F0598116F0FF0F1AD0BA4F2C
:1026300001250024A30003F180432E4203F5C0438B
:102640004FEA45050BD0D3F8100557F82420D3F8EE
:102650001015C0F30420C1F3014102B190470134C9
:10266000082CE7D1002E02DB07B0BDE8F083AA4CAE
:1026700000224FF0FF3327460292039301260DF10B
:10268000080894F950104D1C2DD0C9B221F0C0009B
:1026900006AB4FEAD00E03EB0E0201F0070312F86F
:1026A0000CCC06FA03F31CEA030F1CD03D18890971
:1026B00095F9305057F82590B9F1000F00F0E880F7
:1026C000032900F0E8804FEA800E0EF1A04E12F8C8
:1026D000145CDEF800271D40C2F3014240F0B580D3
:1026E000032A00F0A281002594F95110481C2FD034
:1026F000C9B221F0C00006AB4FEAD00E03EB0E02C8
:1027000001F0070312F80CCC06FA03F31CEA030FDE
:102710001ED007EB000C89099CF930C057F82C90AB
:10272000B9F1000F00F0C680032900F0C6804FEA1F
:10273000800E0EF1A04E12F814CCDEF800271CEA31
:10274000030FC2F3014240F08D80032A00F0928112
:1027500094F952104A1C2ED0C9B221F0C00006AB29
:102760004FEAD00E03EB0E0201F0070312F80CCC77
:1027700006FA03F31CEA030F1DD007EB000C8909CE
:102780009CF930C057F82C90B9F1000F00F0898007
:10279000032900F088804FEA800E0EF1A04E12F857
:1027A00014CCDEF800271CEA030FC2F3014265D106
:1027B000032A00F04C8194F953104B1C2CD0C9B261
:1027C00021F0C00006AB4FEAD00E03EB0E0201F081
:1027D000070312F80CCC06FA03F31CEA030F1BD014
:1027E00007EB000C89099CF930C057F82C90B9F11F
:1027F000000F69D0032969D04FEA800E0EF1A04E78
:1028000012F814CCDEF800271CEA030FC2F30142D1
:1028100011D1032A00F0F080002D3FF425AF4FF0D6
:10282000A043019AD3F8103593423FF41DAF029AAA
:102830000193039225E7022AEED1032900F02D81AE
:10284000B9F1000FE8D0C847E6E7022A7FF44BAFA2
:10285000032900F02B810025B9F1000F3FF444AFAC
:10286000C84741E7022A7FF473AF032900F01881BB
:10287000B9F1000F3FF46CAFC84769E7022A9AD15B
:10288000032900F01081B9F1000F94D0C84792E7F6
:1028900003297FF428AF18F80E501D4308F80E5096
:1028A00011E7032987D118F80EC04CEA030C08F889
:1028B0000EC070E703297FF44BAF18F80EC04CEA46
:1028C000030C08F80EC032E70329A5D118F80EC092
:1028D0004CEA030C08F80EC08EE700221A601B6851
:1028E00005934FF0A043059AD3F81035019346F0B5
:1028F000004699E600610040046100400861004024
:102900000C610040106100401461004018610040FB
:102910001C6100407C6100401C330020654AD2F8F5
:10292000042317067FF57BAE00221A601B68049310
:10293000049B46F0800672E65E4AD2F804235206F3
:102940007FF568AE00221A601B680493049B46F072
:1029500040065FE6574AD2F8042391067FF555AE4C
:1029600000221A601B680493049B46F020064CE684
:10297000504AD2F80423D0067FF542AE00221A60F6
:102980001B680493049B46F0100639E6494AD2F8C6
:10299000042314077FF52FAE00221A601B680493EE
:1029A000049B46F0080626E6424AD2F8042355075F
:1029B0007FF51CAE00221A601B680493049B46F04E
:1029C000040613E63B4AD2F8042397077FF509AEC5
:1029D00000221A601B680493049B46F0020600E67E
:1029E0003449D1F8041311F001011CD01E601B689A
:1029F0000493049B1646EFE503297FF421AF4FF4BF
:102A00000033DEF8002722F44032CEF80027DEF84B
:102A1000002701351343EDB2CEF80037B9F1000FAE
:102A20007FF411AFFBE60E46D6E503297FF414AF21
:102A30004FF40033DEF8002722F44032CEF80027AE
:102A4000DEF800271343CEF80037012504E70329F9
:102A50007FF419AF4FF40033DEF8002722F4403240
:102A6000CEF80027DEF8002701351343EDB2CEF88B
:102A7000003708E703297FF4FBAE4FF40033DEF89C
:102A8000002722F44032CEF80027DEF80027013577
:102A90001343EDB2CEF80037EAE64FF44033B0E727
:102AA0004FF44033EBE74FF44033D5E74FF4403376
:102AB000C0E700BF00600040F0B50479724E6401C9
:102AC000331987B0DD7E15B1082007B0F0BD4D7F0A
:102AD0001D770D686B1C0BD04FF0A0470123AB4056
:102AE000C7F808350B6803F5E073032547F8235052
:102AF0004B685F1C06D003F5E0734FF0A04500273C
:102B000045F82370037906EB43131B7F002B4DD050
:102B100003688D69C3F824554F7D0B7D05683B43E1
:102B2000C5F86C3503680F684D68C3F80C75C3F8B9
:102B300014550B7D012B00F09B80331905465A601C
:102B40000B6951483351EAB12B79097F2A6800EBB0
:102B50004310037F002B65D1C2F81C31D2F81C71E1
:102B60002A680097009FC2F84431D2F844212B68AC
:102B700046480192019AC3F80403286840F30730DD
:102B8000FFF7F0FA2B792A6806EB43131B7F002B23
:102B900044D00823C2F80035344400200123E376F2
:102BA000E0752076A075A07607B0F0BD05688F6946
:102BB000C5F8247591F815E00D7D07684EEA050506
:102BC000C7F86C550568D1F800E04F68C5F8147572
:102BD000C5F80CE50D7D012DAFD18D686F1C05D0BA
:102BE00005F5E0754FF0A04747F82530CB685D1C30
:102BF0000DD001254FF0A04705FA03F3C7F80835BB
:102C0000CB6803F5E073032547F82350CB680568CC
:102C10008F68C5F80835C5F810758EE70423C2F82B
:102C20000035B9E70023C2F81031D2F810712A68D4
:102C30000297029FC2F82031D2F820712A680397C8
:102C4000039FC2F82431D2F824712A680497049FA4
:102C5000C2F84431D2F844212B6805920C48059AF9
:102C6000C3F80403286840F30730FFF77BFA89E7CD
:102C70008B685D1CBAD003F5E0734FF0A0450027C8
:102C800045F82370B2E700BF7433002080000200D3
:102C900010030200F0B503793D4A04685B01D118C6
:102CA000097F00296DD00021C4F80015D118384CD7
:102CB0004968B1B1017904EB4114217F002963D146
:102CC0000168344CC1F808430168334E090B4CB21B
:102CD0006409203401F01F01012505FA01F146F8CD
:102CE00024100179076802EB4111D7F80C65097FC0
:102CF000D7F814554FF0FF3EA9B3D7F80815D7F809
:102D00001045C7F80CE5C7F814E50068C0F808E5F9
:102D1000C0F810E5771C06D006F5E0764FF0A0402D
:102D2000022740F826706E1C06D005F5E0754FF0BE
:102D3000A040022640F82560651C06D004F5E0742A
:102D40004FF0A040022540F82450481C06D001F561
:102D5000E0714FF0A040022440F8214013440022CB
:102D6000DA765A60F0BDD7F80815D7F81045C7F8DD
:102D700014E5C7F80CE50068C0F808E5C0F810E5F0
:102D8000C8E7C4F8001591E70168044C9AE700BF52
:102D9000743300208402020000E100E0100302000E
:102DA00070B59B4C237F8EB0002B75D1994AD2F819
:102DB0000413890548D4974BD3F80423520704D54C
:102DC000D3F80821002A40F0CA80924BD3F81C2186
:102DD000C2B1A28AA07D8E4992B282424FF0000217
:102DE000C3F81C2180F0A980D3F81C210692069A12
:102DF000888A8A8A8D6880B20132285C92B28A827F
:102E0000C3F81C05834BD3F84421DAB10022C3F880
:102E10004421D3F84411A27E04910499002A40F081
:102E20008980E27D7A4B6AB10022587ED968DA75D2
:102E300001228DF830000B918DF828200AA893E824
:102E4000060090470EB070BDD2F824110029B2D010
:102E5000C2F82431D2F82411A37E07914FF40171F6
:102E60000798C2F808130BB901235360694A02237B
:102E70008DF82830D2F88034C2F88034E07DE268E2
:102E80000D9300238DF83000E375237621680B92B3
:102E900063680AA8984798E75E4BD3F82421002A74
:102EA00040F09380D3F8101161B1C3F81021D3F82A
:102EB000101103910399D3F83C15E07DC9B2884203
:102EC00000F0AA80534BD3F84421B2B10022C3F8DA
:102ED0004421D3F84411E07D019101994C4960B13E
:102EE000D3F83C35C8688DF830300123CA750B9093
:102EF0008DF828300AA80AC99847464BD3F82021F4
:102F0000002A9FD00022C3F82021D3F82011A07DF1
:102F1000009100993E49002894D0D3F84C058B6865
:102F20008DF830008A750B938DF828200AC90AA8FD
:102F3000984787E701221A6073E7D3F81C3105939D
:102F4000059B00283FF45EAF8B688DF830008A75D2
:102F50000B938DF828200AC90AA8984752E7E17D0B
:102F60002B4A002970D00021C3F80811D3F80811AA
:102F700008910899D068517ED3F818354354537E90
:102F8000D17D0133DBB25376627E214B8A427FF4DE
:102F90001CAF1A7E002A6DD19B7E13B91D4B0122F6
:102FA0005A601C4AE06863684FF40171C2F8081364
:102FB000627E8DF83020002501220B902168E57596
:102FC0008DF828200AA89847FFE60022C3F824219C
:102FD000D3F82411029102218DF828100299D3F818
:102FE0008014C3F880140D91D3F83C15E368E275A2
:102FF00022768DF830100B93216863680AA89847F1
:10300000044BD3F84421002A3FF477AF5EE700BFBA
:103010007433002000200040217EF1B1D3F800621B
:10302000E17526F02001E568C3F8001226698DF8E5
:10303000300001238DF82830227621680B95E66058
:1030400063680AA898473DE7C3F80811D3F8082138
:103050000992099AD3F8183596E7E268E1750123D9
:103060008DF830008DF828300B9294E80A000AA8F9
:10307000984727E7DE685D7E1869DA75012100222E
:10308000D8601A765A768DF828100B968DF8305045
:1030900093E806000AA8904797E600BF0220FEF7D3
:1030A00089BF00BF2DE9F0470D460646FEF7C4FF75
:1030B00003281ED8012D04461FD00ED3022D1AD18D
:1030C0001E4B00EB40041C44657895B11C4B1B68FB
:1030D0007BB12846BDE8F04718471A48FDF740FA8B
:1030E0001649194A04EB44030B44155D9B789D4235
:1030F000EBD0BDE8F087BDE8F087DFF840804700FF
:103100003B1808EB030218F8035053782BB92744F7
:1031100047440D4BBA781A55D7E70C4BDFF830907F
:103120001968084801EB810149004A46FDF7C0F9DA
:103130000028ECD189F80060E9E700BF0C340020DA
:10314000C4330020C8330020BC330020C03300202B
:10315000B83300207F4B1B68DB0700D4704770B585
:103160007D4E7E4D33782C789BB9172C10D8DFE834
:1031700004F0666B6B879CB0C2AA241524158231BB
:103180003131313151565ECF0C0CFEF7FDFE2C7003
:1031900070BD00233370FEF7E1FEE6E70123184619
:1031A0003370FEF707FF6E4B6E481968002201EB83
:1031B0008101BDE87040FDF77BB9012318463370EB
:1031C000FEF7F8FE664B674819680022BDE87040BC
:1031D000FDF76EB96448FDF7C3F9D4F11104024656
:1031E00000F0A180002840F09E80012C0DD0C82561
:1031F0005E4B5B495C48096805FB04F4A3FB044390
:103200005B0901FB03F1FDF753F90220BDE87040B3
:10321000FEF78CBEFEF7A2FE12232B7070BDFEF7E8
:103220009DFE0020FEF782FE13232B7070BDFEF77B
:1032300095FE0120FEF77AFE14232B7070BDFEF779
:103240008DFE00232B7070BD0020FEF75FFE00286E
:1032500079D00020FEF776FE022C14BF282312231B
:103260003F4A2C7011683F4801FB03F10022BDE882
:103270007040FDF71DB9FEF787FE0C232B7070BD63
:103280000020FEF743FE002856D00020FEF75AFE2D
:103290000822334B3348196803232B7001FB02F1DA
:1032A000BDE870400022FDF703B90020FEF72EFEB6
:1032B00000283DD00020FEF745FE2822284B294853
:1032C00019680423E9E70020FEF730FE07232B707E
:1032D00070BD0020FEF71AFE90B30020FEF732FE0C
:1032E0001F4B2048196805232B7049000022BDE8B8
:1032F0007040FDF7DDB80020FEF75CFE184B194862
:10330000196806232B700022BDE87040FDF7D0B885
:10331000FEF724FE0020FEF709FE0120FEF706FE60
:1033200015232B7070BD0220BDE87040FEF70ABE69
:10333000FEF7FCFD0422C1E7FEF7F8FD0222A8E734
:10334000FEF7F4FDCCE7FEF7F1FD022C14BF0423D9
:10335000022385E7B4330020B9330020E83300208E
:10336000C033002094330020EC3300201F85EB5144
:1033700010B50078FEF760FE03280BD8064B00EB73
:1033800040001844407828B1044B1B6813B1BDE8D5
:103390001040184710BD00BF0C340020C43300207B
:1033A000FEF73ABEF0B5214D214E224B286004466F
:1033B00010F0020083B031601A6012D01E4B1F481B
:1033C0004A080F270E21102611251970DF700421DD
:1033D0009E715D72FCF74AFBA0B1E3071DD403B0F8
:1033E000F0BDE20719D4164A16480021FDF74EF841
:1033F0000028F4D1144A1548012103B0BDE8F0407B
:10340000FDF744B8FCF78AFB0028E6D10146104AD4
:103410001048FDF73BF8E10703D50190FEF7DEFD0C
:1034200001980028DFD003B0F0BD00BFB433002006
:10343000C0330020C43300200C34002050AD020003
:10344000553102004CAD02009D30020070AD02000B
:103450007133020048AD0200032801D907207047EC
:10346000012A12D0012917D008D30229F6D10D4B19
:1034700000EB4000034400205A707047094B00EBFA
:103480004000034400209A707047012901D00022B7
:10349000E8E700F10E02D2B200EB40030149002040
:1034A000CA5470470C34002008B5FEF7D7FD8000E1
:1034B00000F1A0430020D3F8002722F44032C3F8E3
:1034C0000027D3F8002742F44032C3F8002708BD94
:1034D00008B50020FFF7E8FF10B1062800D008BDAE
:1034E0000120FFF7E1FF0028F9D0062808BF0020DF
:1034F00008BD00BF10B50388102B08D0112B05D1D3
:10350000264B18680138186038B110BD10BD234C27
:10351000216881B10131216010BD01220221FFF734
:103520009BFF48B3072827D01D4B1B68002BECD00E
:10353000BDE81040184701220846FFF78DFF48B14B
:10354000072807D0164B1B6803B198472168013143
:10355000216010BD072202210120FFF77DFF08B185
:103560000728EFD1042202210020FFF775FF002871
:10357000ECD00728E6D1E9E7072202210120FFF776
:103580006BFF08B10728CFD1002108460A22FFF7B8
:1035900063FF0028B9D00728C6D110BD1C34002015
:1035A00018340020194B10B5186031B101200C46B9
:1035B000FFF7F6FE30B102232370154B186848B1AF
:1035C000002010BDFFF7ECFEE8B9114B2070186821
:1035D0000028F5D101220221FFF73EFF08B107289C
:1035E000EFD1072202210120FFF736FF08B107289B
:1035F000E7D1002108460A22FFF72EFF0028DFD07E
:103600000728DED1DCE70B232370D6E7183400202F
:103610001C34002076DF70477ADF70477CDF70470C
:10362000A8DF704767DF704732DF70473EDF7047C3
:10363000704700BF704700BFFCF786BA014806F02C
:10364000BBBC00BF4034002010B50446FEF726F98D
:103650002046BDE8104001F099BC00BF08B54FF00E
:10366000A04369B94FF48022C3F808251620C3F897
:103670000C15FEF76BFE0820BDE80840FEF766BE9D
:103680004FF480210022C3F80C151620C3F808253A
:10369000FEF754FE0820BDE80840FEF74FBE00BF0D
:1036A000037803B170472DE9F047042104464068D0
:1036B00007F072F800282FD16268434B14885088B5
:1036C0001E68424F9188B2F806E03A78B4F5805F00
:1036D00034BF254600253544B0F5805F5E681D6027
:1036E00034BF04460024B1F5805F28BF00219868EC
:1036F000BEF5805F344402F10102DE685C6028BFE1
:103700004FF0000ED2B208447644192A9860DE6069
:103710003A7004D0BDE8F087FCF716FACCE7DFF882
:10372000B880DFF8B8E098F80020294902F1010CD0
:10373000AEFB0494AEFB0090AEFB05955FFA8CFCEB
:10374000AEFB06E602F1020E4FEAD5095FFA8EFEE5
:10375000ED0A02F1030A01F802905FFA8AFA01F811
:103760000C5002F10409E50801F80E505FFA89F9DE
:10377000E40A02F1050C02F1060ED51D083201F82B
:103780000A40D2B2C4085FFA8CFC5FFA8EFEEDB23A
:1037900001F80940C00A00244FEAD609182A4FEA66
:1037A000D62601F80C0088F8002001F80E901C6065
:1037B0004E555C609C60DC603C70ABD1054806F007
:1037C000B5FB88F80040A5E708350020203400202C
:1037D0000436002040340020003600201F85EB51C5
:1037E000072808B51ED00A280ED0042800D008BD2E
:1037F000144B13211888FFF70DFF30F00803F6D0A3
:10380000BDE80840FCF7A0B91620FEF79FFD082090
:10381000FEF79CFDFFF75CFE80B9FFF705FF00286F
:10382000EED108BD074B1A884FF6FF739A42DED1DE
:1038300001F0DCFB30F00803D9D0E1E7FCF784F9B4
:10384000EBE700BFA82C002000B1704708B5162098
:10385000FEF77CFD0820FEF779FDFFF739FE38B949
:10386000FFF7E2FE00B908BDBDE80840FCF76CB9FF
:10387000FCF76AF9F4E700BF08B5032001F006FB86
:1038800000B908BDBDE80840FCF75EB9F0B5424B91
:103890008FB0186859681F7A02AA03C2002307264E
:1038A00002250524184602A917708DF805308DF8F9
:1038B00007308DF80A308DF80B308DF806608DF8E2
:1038C00004508DF80C4006F029FF002861D1334BDD
:1038D000186859681D7A05AB03C30022052405A9A1
:1038E00001201D708DF816208DF817208DF81840D6
:1038F00006F014FF002849D1294B186859681D7A31
:1039000008AB03C30022052408A902201D708DF80E
:1039100022208DF823208DF8244006F0FFFE90BB76
:10392000204B186859681D7A0BAB03C3002205248D
:103930000BA903201D708DF82E208DF82F208DF8F7
:10394000304006F0EBFED8B9174901A806F06AFD31
:1039500098B90421154806F01FFF58B904211448EE
:1039600006F01AFF08B1FCF7EFF8124BD3F8043356
:103970000FB0F0BDFCF7E8F8F0E7FCF7E5F8E8E792
:10398000FCF7E2F8E0E7FCF7DFF8C9E7FCF7DCF862
:10399000B2E7FCF7D9F89AE774AD020080AD0200F7
:1039A0008CAD020098AD0200A13602001C3600204A
:1039B000243600200070004010B5044684B001F0A9
:1039C00077FC204604F0C8FD21463F4806F056F932
:1039D000204601F011FC2046FFF78CFD2388112BB7
:1039E00051D01BD9512B36D0562B0ED03B2B0CD09F
:1039F000204601F06BFA2146344802F05BFD214677
:103A0000334800F057FA04B010BD1321A088FFF727
:103A100001FE0028ECD0FCF797F8E9E7022B4BD029
:103A2000102BE5D12B4806F07BFFFFF72FFF4FF05F
:103A3000A043032040F20321274AC3F85807C3F8E4
:103A40005817107807F0DAF808B1FCF77DF8234B27
:103A5000A2881A80CCE7A379002BC9D0A27B043AB4
:103A6000022AC5D8022B0CBF022201224FF4C173D7
:103A70006946A0888DF80020ADF80430FFF7D0FD2E
:103A80000028B5D0C7E7154B4FF6FF721A8006F035
:103A900015FD104806F052FF114B8022C3F880211B
:103AA0001620FEF753FC0820FEF750FC032001F01F
:103AB000EDF900289CD0AEE7084B00211888FFF7ED
:103AC000B1FD002894D0A6E740340020183500202E
:103AD00024340020C4AD020021340020A82C002092
:103AE00000E100E008B50549054802F0D1FC00B945
:103AF00008BDBDE80840FCF727B800BF3D3602000E
:103B00001835002030B585B007F00CF8002836D104
:103B10000023072503241B4A1B488DF8083002A9FF
:103B20008DF8093003938DF80B508DF80A4006F09C
:103B300095FE08BB154B1448D3F810350021DBB2B5
:103B40004FF4FA42DA400091012306F005FF06F037
:103B500013FE04460E4806F0EFFF50B90C4B0D491A
:103B60001878224607F024F808B1FBF7EDFF05B0FE
:103B700030BDFBF7E9FFF1E7FBF7E6FFDAE7FBF71C
:103B8000E3FFC5E735360200C4AD020000A00140E6
:103B90002134002040A10140F0B54FF08042B24BEB
:103BA0000121C2F878159DB000221A605A609A600F
:103BB000DA60FEF741FB10B9FEF7FCFA044614B1D7
:103BC0002046FBF7C1FF00230CA916208DF83230E8
:103BD000ADF83030FEF73AFB08B1FBF7B5FF0CA9A2
:103BE0000820FEF733FB08B1FBF7AEFF00231846B1
:103BF0009E4A0521FCF76AFB08B1FBF7A5FF9C4A2A
:103C000040F6CD410320FFF7CDFB08B1FBF79CFF49
:103C10000CA90020FFF7C6FC08B1FBF795FF954BF8
:103C2000954918680490002304A8D82206F03EFAAB
:103C300008B1FBF789FF0CAA0121002006F0ACFABD
:103C400008B1FBF781FF9E230CA8ADF8403006F0C9
:103C5000BBFA08B1FBF778FF884806F071FA08B1A3
:103C6000FBF772FF864806F075FA08B1FBF76CFFA8
:103C70009DF810308348012262F3030362F30713B7
:103C80008DF8103007F015F87E4982B204A8FFF7CE
:103C9000C5FC08B1FBF758FF082200210CA8FBF770
:103CA00051FC0824102100224FF4C8730CA8ADF871
:103CB0003040ADF83210ADF83420ADF83630FFF7B3
:103CC000ABFC08B1FBF740FF3C2200210CA8FBF73E
:103CD00039FC0124022306266B4D8DF8303020225A
:103CE000002104A8ADF840308DF8336011958DF8AF
:103CF0003240FBF727FC00214FF4C8763C250091A9
:103D0000624B8DF8134004AA0CA80896099501F09F
:103D100001F808B1FBF718FFFFF7E4FE03231422B4
:103D2000002104A88DF80B30FBF70CFC9DF81C005B
:103D30009DF81F309DF81D709DF81E509DF8204085
:103D4000012262F30300002662F3071062F303030B
:103D500007F0F00705F0F00504F0F00462F3071334
:103D60008DF81C0066F3071766F3071566F3071452
:103D70008DF8142004A90DF10B0245488DF81F3071
:103D80008DF81D7004968DF81E508DF82040069217
:103D900005F09EFF08B1FBF7D7FE402200210CA8DA
:103DA000FBF7D0FB3B490CA801F076FB9DF86C308B
:103DB0009DF86D20012161F3030302F0F00261F32D
:103DC00007136FF307120CA88DF86C308DF86D2077
:103DD00005F0E8FD08B1FBF7B7FE1CAC2E4B44F82C
:103DE000643D00211C222D48FBF7ACFB21462B48EB
:103DF00000F082F808B1FBF7A7FE1C2200210CA8F6
:103E0000FBF7A0FB224B26499B89264AADF83E30A2
:103E10004FF4004600234FF4702503240CA80C93A4
:103E20008DF840300D960E958DF83C401191129210
:103E300001F0A8F908B1FBF787FEFFF763FE4FF02A
:103E4000A04340F203110322C3F820170820C3F84F
:103E50002027FEF773FAFFF70FFDFFF7E7FB0028B7
:103E6000FBD0FBF771FEF8E7083500209034002006
:103E7000E1370200A4AD020028350020B939020064
:103E800049360200A8AD0200A02C002049380200EB
:103E900040340020B4AD02005D360200243400201E
:103EA0003136020039360200A0DF7047A2DF7047CA
:103EB00063DF70470B88112B0FD0502B05D0102BD0
:103EC00000D070478B888382704710B44488CB88B9
:103ED0009C4206D05DF8044B70474FF6FF73838217
:103EE00070470B8A012BF5D18369002BF2D0897CB6
:103EF0005DF8044B184700BFF0B5744B0C464FF605
:103F0000FF728282054695B01868596824689A68DD
:103F1000DB68AC6104AC0FC405F1120104A8FFF723
:103F2000C7FF18B10446204615B0F0BD14A941F2F0
:103F3000235321F8483D2A46AB7C8DF80A300120F6
:103F4000FFF7B2FF04460028EDD121460322684660
:103F5000FBF7F8FA9DF800709DF801309DF802E03B
:103F6000012666F3030766F3030366F3071366F39C
:103F7000420E214666F307171C220DA88DF800702B
:103F80008DF801308DF802E0FBF7DCFA9DF8343053
:103F900095F812E00E9443F01203214641F22457A3
:103FA000032201A81094119413948DF834308DF8E5
:103FB0000EE0ADF80C70CDF848D0FBF7C3FA9DF8D1
:103FC00006309DF804E09DF8057066F3420364F343
:103FD000C30364F3041364F3030766F3030E64F38B
:103FE000000366F3071E64F307172146142208A88E
:103FF0008DF806308DF804E08DF80570FBF7A2FA15
:1040000001AFADF82A400C9408AA03AC0DA905F144
:104010000A03288808940997ADF82860ADF82C6049
:10402000FFF744FF044600287FF47DAF01461C22C1
:104030000DA8FBF787FA9DF83430A87C8DF80E00A8
:1040400043F00A03214641F22557032201A80E94AA
:1040500010941194129413948DF83430ADF80C70C0
:10406000FBF770FA9DF806309DF804009DF8057086
:1040700066F3420364F3C30366F3030064F30413BB
:1040800066F3071066F3030764F300032146142266
:104090008DF8040066F3071708A88DF806308DF830
:1040A0000570FBF74FFAAB1C2888ADF82A4003AD2A
:1040B000089508AA0DA901AD0C940995ADF82860E2
:1040C000ADF82C60FFF7F2FE04462CE7CCAD020001
:1040D000F8B5114C2378F3B9A362104A6362022049
:1040E000A365E362E36563650D4F0E4D0E492061E4
:1040F00010234FF4007623656061A261A264E01D85
:10410000E7612662E56406F0CCFD0849204606F02A
:10411000C8FD2023A371F8BD2C3C0020DCAD0200BB
:104120003C3600202C360020E8AD0200ECAD020049
:104130006DDF704772DF704779DF70477DDF704752
:1041400065DF70472DE9F04F83B004880C9FBDF800
:104150003490B7F800A0002C4CD0984600231646A7
:104160008B4605461C4603E02A880134A24224DD22
:104170006A6852F82400019000220DF1030101A8A1
:10418000FFF7DEFF10BB9DF80320B242ECD103B372
:104190003A8893194B4518DC42440DF1030101A8FC
:1041A0000123FFF7CDFF88B93A889DF803100A4430
:1041B0003A802A880134A242DADCDBB13B88013B39
:1041C000CAEB03039BB2FF2B12D90C2003B0BDE84E
:1041D000F08F3B885A1C334402334B4592B2F4DCD7
:1041E0003A8008F802B03A88013292B23A80D3E7B6
:1041F00008F80A30002003B0BDE8F08F2DE9F04741
:1042000000231788138090F82D3084B0144605469B
:104210000E46002B49D1AA78002A70D1EA78002AEC
:104220002ED16A68A2B1D91CB94225D8022192F9CF
:104230000020F154238801339BB20A212380F154DA
:10424000238801339BB22380F254238801332380D7
:104250002B89002B40F02A812B8A002B40F03F81D4
:104260002B8B002B40F054812A6A002A00F0A78093
:1042700021888B1DBB4262D90C2004B0BDE8F087B9
:10428000D91CB942F8D80221F154238801339BB2DA
:1042900001212380F15423880B449BB22380F254E4
:1042A00023880B449BB22380BBE7082FE4D902A8E4
:1042B000FFF73EFF0028E0D113880822CA54238864
:1042C00001339BB21B222380CA542088013080B264
:1042D0002080062208440DF1090106F0BCFC238869
:1042E0009DF8082006339BB212F0FE0218BF01228F
:1042F0002380F254238801339BB223808BE704335D
:10430000BB42B9D802A8FFF717FF0028B5D1238810
:10431000BDF808200321F154238801339BB21921F1
:104320002380F154238801339BB2F1182380F25487
:10433000120A4A70238802339BB223806EE71388E7
:10434000052B40F2AF806FF4486803EB080080B2A1
:104350004FF27D3E704540F2A5805088052840F21E
:10436000A1806FF4486C84441FFA8CFCF44540F241
:1043700099804FF6FF7E734504D0704502D083428A
:1043800000F2908005237354238801339BB21221DD
:104390002380F154238801339BB223801188F15488
:1043A0003344090A5970238802339BB22380528810
:1043B000F2543344120A5A70238802332380D5F80A
:1043C0002480B8F1000F30D0B8F804202188131DE4
:1043D0000B44BB423FF650AF931CFE2B3FF64CAF55
:1043E00003327254238801339BB2FF222380F2549C
:1043F000238801339BB22380B8F80020F254334461
:10440000120A5A702088023080B22080B8F8042046
:104410005AB1D8F80810002944D0304406F01BFCEB
:10442000B8F8043022881344238095F82C30002BF0
:1044300040F08B80287800283FF41FAF2B88012B99
:1044400030D023889A1CBA423FF616AF012805D116
:104450006978023119448F42FFF40EAF023FFB1A14
:1044600004A99BB221F8083DB018FFF767FE0028A9
:104470007FF403AF2A78022A00F0B480012A60D0CA
:104480001A460821FE2A3FF6F7AE2388551CF5543C
:10449000238801339BB22380F154238801331A44CB
:1044A0002280EAE6072004B0BDE8F08705F108089D
:1044B00002228DE89000404611463346FFF742FE47
:1044C00000287FF4DAAE8DE8900040463346102293
:1044D0000621FFF737FE00287FF4CFAEBCE605F1DA
:1044E00010088DE890004046334602220321FFF772
:1044F00029FE00287FF4C1AE8DE890004046334687
:1045000010220721FFF71EFE00287FF4B6AEA7E6B3
:1045100005F118088DE89000404633460222142128
:10452000FFF710FE00287FF4A8AE8DE8900040460B
:10453000334610221521FFF705FE00287FF49DAEBB
:1045400092E66A7893429CD29AE7D5F82880B8F12F
:10455000000FA7D0B8F804200232FE2A3FF68CAE36
:1045600023884FF000094FF0160A0132F2542388D5
:1045700001339BB2238006F803A0238801339BB24A
:104580002380B8F80020F2543344120A5A7023886A
:1045900002339BB22380B8F80410F0180A4669B1C0
:1045A000D8F808301946002B3FF47CAF06F053FBD7
:1045B000B8F80430228813449BB2238009F1010922
:1045C00095F82C205FFA89F94A4509EB49087FF6EE
:1045D00031AFAA6A02EB8808B8F804200232FE2A3A
:1045E000C3D949E6BDF808209342FFF449AF092139
:1045F00048E700BF2DE9F04395B01F230D46ADF805
:104600000E300446002800F08480C27853077CD521
:1046100090F82D300021ADF80C10002B40F0DD811A
:1046200083780CAF002B40F019821946032014AE9A
:1046300031445F1C023316FA87F74FF0020E16FA68
:1046400083F601F840EC83B2012107F8401CADF875
:104650000C3006F8402C6668002E00F08C80D81CC8
:104660001F2874D90C2015B0BDE8F083A76A002F6D
:104670004BD0BA880232FE2AF4D8BDF80C304FF085
:10468000000804AE4FF016091AE006F0E4FABDF88F
:104690000C20BB8894F82C1013449BB2ADF80C305E
:1046A00008F101085FFA88F8884508EB480780F0B0
:1046B000F080A26A02EB8707BA880232FE2AD1D8BC
:1046C0000DF1500E9E44581C01320DF1500C0EF8A5
:1046D000402C1CFA80F09A1C92B200F8409CADF875
:1046E0000C203888B0543244000A50700433B7F8B4
:1046F00004E09BB27246F018ADF80C30BEF1000F2A
:10470000CED0BB681946002BBFD1072015B0BDE83D
:10471000F083ADF80C00ADB1EB78002BF5D1284655
:104720000CA90DF10E02FFF769FD0028EED19DF8EE
:104730000E300CAA20469DF80C10FFF7FBFC15B0BC
:10474000BDE8F0832B46ADF80E502A46F2E714AFD1
:10475000591C9A1C17FA81F13B4417FA82F296F918
:104760000060ADF80C0002270A2003F8407C01F835
:10477000400C02F8406C2389002B40F08F80238A84
:10478000002B40F0AB80238B002B40F0C780226AC7
:10479000002A42D0BDF80C30991D1F293FF662AFA8
:1047A00010880528B1D96FF4486C00EB0C06B6B23E
:1047B0004FF27D37BE42A8D95688052EA5D96FF491
:1047C000486EB6441FFA8EFEBE459ED94FF6FF775F
:1047D000B84203D0BE4201D0B04296D814A8C71840
:1047E0005E1C10FA86F64FF0050E981C07F840EC98
:1047F00080B2122706F8407CADF80C001788ADF89F
:104800000C1004AE3118375404333F0A4F709BB27A
:104810005288F2543344120A5A70676AA7B3B888B0
:10482000BDF80C30811C9A1C56181F2E3FF61AAF8B
:10483000FE293FF617AF14AE1E44591C0DF1500E61
:104840001EFA81F1033006F8400C92B2FF2001F805
:10485000400CADF80C20398804AEB018B154090AE8
:1048600041700433BA8898B2ADF80C0062B1B968EF
:1048700000293FF44AAF304406F0EDF9BDF80C20B2
:10488000BB881344ADF80C3094F82C1000297FF449
:10489000EDAE2378002B61D104AC3CE703A904F111
:1048A000080704AE4FF01F08022200913846334635
:1048B000CDF804801146FFF745FC00287FF426AFB1
:1048C00003AB0093CDF8048033463846102206210E
:1048D000FFF738FC00287FF419AF50E703AA04F172
:1048E000100704AE4FF01F08009238463346CDF84B
:1048F000048002220321FFF725FC00287FF406AF85
:1049000003AB0093CDF804803346384610220721CC
:10491000FFF718FC00287FF4F9AE34E703AA04F18E
:10492000180704AE4FF01F08009238463346CDF802
:10493000048002221421FFF705FC00287FF4E6AE74
:1049400003AB0093CDF8048033463846102215217E
:10495000FFF7F8FB00287FF4D9AE18E72288012A78
:104960003FF4D3AEBDF80C20901C1F283FF67AAE62
:10497000012B05D16378134402331F2B3FF672AE2F
:10498000C2F11D0314A99BB204AE21F8203D3044AE
:10499000FFF7D4FB00287FF4B9AE2278022A00F09A
:1049A0008780012A00F08B80ADF830301A4608204D
:1049B000FE2A3FF657AEBDF80C3014AC591CE71870
:1049C00014FA81F102331344013207F8402C3446C3
:1049D000ADF80C3001F8400C9DE60CAF3846FFF7FF
:1049E000A7FB00287FF492AEBDF80C3014A903F1A8
:1049F000010E9A1C11FA8EFE0B4492B204AEB0184E
:104A000008211B2603F8401CADF80C200DF13101E4
:104A100006220EF8406C06F01EF9BDF80C209DF839
:104A20003010931D11F0FE019BB23BD114A803443A
:104A300003F8401CD31DA2789BB2ADF80C304AB9E4
:104A4000E278002A3FF407AED81C1F2819463FF62B
:104A500009AEECE504331F2B3FF604AE3846FFF7F2
:104A60006BFB00287FF452AEBDF80C30BDF830105F
:104A7000E2785F1C14AE16FA87F71E44981C4FF0BC
:104A8000030E06F840EC80B204AE4FF0190E07F8A2
:104A900040EC0433371831549BB2090AADF80C309E
:104AA0007970CEE714A90B44012103F8401CC1E73B
:104AB000BDF830209342FFF477AF092078E76278A1
:104AC0009342FFF471AFADF83020082070E700BFCB
:104AD00073DF704774DF7047F0B5844D85B00646CC
:104AE000072200218248FAF72DFD6B78FBB9AB78DD
:104AF000804F002B70D17E4C6378002B70D1A3784F
:104B0000002B6DD1E378002B6AD12379002B67D17C
:104B10006379002B64D1A379003318BF0123701E81
:104B2000032800F2DF80DFE800F0164F1C38714FD9
:104B30003B78012B04D0AA78002ADCD0022BDAD1F2
:104B40006D4B6E4A1B68002B00F0C38001210820CA
:104B500011709847CFE76A78002A35D0002B40F0D3
:104B6000BA80EB78CBB1644B1B6803223A70E3B98F
:104B7000634B00221A70102268460021FAF7E2FC0B
:104B80003B7800228DF800208DF80820042B49D8AE
:104B9000DFE803F093876D4B28002B79D3B1564B98
:104BA0001B6804223A70002BE2D02A78002ADFD05A
:104BB000544A1278002ADBD153485149027001222D
:104BC00007200A709847D6E7AA78002AC9D0002B98
:104BD000C7D002233B70CBE73B78012BAED1AFE7C8
:104BE00001239CE72B78A969EA69ADF80A10ADF8B2
:104BF0000C20002B65D0434B1978002961D1424B22
:104C00001B78002B5DD0414B042402221846DC7037
:104C10008DF80820FFF7EEFC00285FD13C4A3B7876
:104C200006211170002B33D02EE02B7829696A6998
:104C3000ADF80A10ADF80C20002B46D0314B197896
:104C4000002942D1304B1B78002B3ED02F4B04243F
:104C500002221846DC708DF80820FFF7CBFC0028F4
:104C60003CD12B4A3B78052111708BB10CE02848D0
:104C7000EA68AB6801940121022404708DF80010E9
:104C8000ADF80C20ADF80A306846FFF721FF30B9C7
:104C9000194B1B6813B11E4A10789847002005B0C5
:104CA000F0BD1B490194012200230A708DF80020F9
:104CB000ADF80C30ADF80A30E6E7154B00221A705B
:104CC000E6E7134B04221A70DEE7114B03221A7039
:104CD000DAE713700FE701233B7049E73B78002BBD
:104CE000D6D0D1E700233B7042E700BFBC3800209C
:104CF000B438002002390020883800200339002011
:104D0000FF380020AF380020783800203C380020E1
:104D1000143900202DE9F84FDDF828E0002800F0D4
:104D20009880002A00F09580144605469C460E4661
:104D30000FCC494FDFF84491DFF844A1DFF84481FC
:104D4000DFF844B1C8F800C00FC794E80F00002492
:104D500087E80F00414F424B4248CBF800E0012268
:104D600089F80020214607224FF6FF79A3F800902A
:104D70008AF80040FAF7E6FB21463C223846FAF76B
:104D8000E1FB05F1100393E80300AA78EB7895F8AE
:104D900000E0BA70FB7007F1100395F801C087F8C6
:104DA00000E083E8030005F1080393E8030007F13E
